{
	"data": {
		"bytecode": {
			"linkReferences": {},
			"object": "60a060405234801561000f575f5ffd5b50604051610bd7380380610bd78339818101604052810190610031919061007d565b815f81905550806080818152505050506100bb565b5f5ffd5b5f819050919050565b61005c8161004a565b8114610066575f5ffd5b50565b5f8151905061007781610053565b92915050565b5f5f6040838503121561009357610092610046565b5b5f6100a085828601610069565b92505060206100b185828601610069565b9150509250929050565b608051610af66100e15f395f818161054101528181610623015261064c0152610af65ff3fe608060405260043610610089575f3560e01c80635f0073d0116100585780635f0073d0146102a857806386968259146102d2578063e8b1298f146102fc578063ecbea24d14610324578063f061293a1461034e576101f8565b806327e235e3146101fc5780633c11fdab146102385780633d922f9014610274578063449533131461027e576101f8565b366101f857345f81036100c8576040517fe429a53900000000000000000000000000000000000000000000000000000000815260040160405180910390fd5b5f346002546100d79190610870565b90505f5481111561012f57346002545f546100f291906108a3565b6040517f9ef1b1a80000000000000000000000000000000000000000000000000000000081526004016101269291906108e5565b60405180910390fd5b3460015f3373ffffffffffffffffffffffffffffffffffffffff1673ffffffffffffffffffffffffffffffffffffffff1681526020019081526020015f205f82825461017b9190610870565b925050819055508060028190555060035f81548092919061019b9061090c565b91905055503373ffffffffffffffffffffffffffffffffffffffff167fc2c39e0ff6c9e0d87ee52f45cc717be2ba93405ddecd639a8be0e2ad2e2cd743346002546003546040516101ee93929190610953565b60405180910390a2005b5f5ffd5b348015610207575f5ffd5b50610222600480360381019061021d91906109e6565b610378565b60405161022f9190610a11565b60405180910390f35b348015610243575f5ffd5b5061025e600480360381019061025991906109e6565b61038d565b60405161026b9190610a11565b60405180910390f35b61027c6103d3565b005b348015610289575f5ffd5b5061029261053f565b60405161029f9190610a11565b60405180910390f35b3480156102b3575f5ffd5b506102bc610563565b6040516102c99190610a11565b60405180910390f35b3480156102dd575f5ffd5b506102e6610569565b6040516102f39190610a11565b60405180910390f35b348015610307575f5ffd5b50610322600480360381019061031d9190610a54565b61056f565b005b34801561032f575f5ffd5b5061033861078b565b6040516103459190610a11565b60405180910390f35b348015610359575f5ffd5b50610362610790565b60405161036f9190610a11565b60405180910390f35b6001602052805f5260405f205f915090505481565b5f60015f8373ffffffffffffffffffffffffffffffffffffffff1673ffffffffffffffffffffffffffffffffffffffff1681526020019081526020015f20549050919050565b345f810361040d576040517fe429a53900000000000000000000000000000000000000000000000000000000815260040160405180910390fd5b5f3460025461041c9190610870565b90505f5481111561047457346002545f5461043791906108a3565b6040517f9ef1b1a800000000000000000000000000000000000000000000000000000000815260040161046b9291906108e5565b60405180910390fd5b3460015f3373ffffffffffffffffffffffffffffffffffffffff1673ffffffffffffffffffffffffffffffffffffffff1681526020019081526020015f205f8282546104c09190610870565b925050819055508060028190555060035f8154809291906104e09061090c565b91905055503373ffffffffffffffffffffffffffffffffffffffff167fc2c39e0ff6c9e0d87ee52f45cc717be2ba93405ddecd639a8be0e2ad2e2cd7433460025460035460405161053393929190610953565b60405180910390a25050565b7f000000000000000000000000000000000000000000000000000000000000000081565b60025481565b60035481565b805f81036105a9576040517fe429a53900000000000000000000000000000000000000000000000000000000815260040160405180910390fd5b818060015f3373ffffffffffffffffffffffffffffffffffffffff1673ffffffffffffffffffffffffffffffffffffffff1681526020019081526020015f20541015610621576040517ff1270c8600000000000000000000000000000000000000000000000000000000815260040160405180910390fd5b7f00000000000000000000000000000000000000000000000000000000000000008311156106a857827f00000000000000000000000000000000000000000000000000000000000000006040517f60aa7cbc00000000000000000000000000000000000000000000000000000000815260040161069f9291906108e5565b60405180910390fd5b8260015f3373ffffffffffffffffffffffffffffffffffffffff1673ffffffffffffffffffffffffffffffffffffffff1681526020019081526020015f205f8282546106f491906108a3565b925050819055508260025f82825461070c91906108a3565b9250508190555060045f8154809291906107259061090c565b91905055506107343384610796565b3373ffffffffffffffffffffffffffffffffffffffff167f513a4e63a7de56cc9b7c15d2467c0ad91c82df2b439cc2c4992f0b3b4b997d148460045460405161077e9291906108e5565b60405180910390a2505050565b5f5481565b60045481565b5f8273ffffffffffffffffffffffffffffffffffffffff16826040516107bb90610aac565b5f6040518083038185875af1925050503d805f81146107f5576040519150601f19603f3d011682016040523d82523d5f602084013e6107fa565b606091505b5050905080610835576040517f8a6c667700000000000000000000000000000000000000000000000000000000815260040160405180910390fd5b505050565b5f819050919050565b7f4e487b71000000000000000000000000000000000000000000000000000000005f52601160045260245ffd5b5f61087a8261083a565b91506108858361083a565b925082820190508082111561089d5761089c610843565b5b92915050565b5f6108ad8261083a565b91506108b88361083a565b92508282039050818111156108d0576108cf610843565b5b92915050565b6108df8161083a565b82525050565b5f6040820190506108f85f8301856108d6565b61090560208301846108d6565b9392505050565b5f6109168261083a565b91507fffffffffffffffffffffffffffffffffffffffffffffffffffffffffffffffff820361094857610947610843565b5b600182019050919050565b5f6060820190506109665f8301866108d6565b61097360208301856108d6565b61098060408301846108d6565b949350505050565b5f5ffd5b5f73ffffffffffffffffffffffffffffffffffffffff82169050919050565b5f6109b58261098c565b9050919050565b6109c5816109ab565b81146109cf575f5ffd5b50565b5f813590506109e0816109bc565b92915050565b5f602082840312156109fb576109fa610988565b5b5f610a08848285016109d2565b91505092915050565b5f602082019050610a245f8301846108d6565b92915050565b610a338161083a565b8114610a3d575f5ffd5b50565b5f81359050610a4e81610a2a565b92915050565b5f60208284031215610a6957610a68610988565b5b5f610a7684828501610a40565b91505092915050565b5f81905092915050565b50565b5f610a975f83610a7f565b9150610aa282610a89565b5f82019050919050565b5f610ab682610a8c565b915081905091905056fea2646970667358221220c8ec3c65232dfb256cef0a6ec85421c8801a30000fd4eddb428fe28bf43906cd64736f6c634300081e0033",
			"opcodes": "PUSH1 0xA0 PUSH1 0x40 MSTORE CALLVALUE DUP1 ISZERO PUSH2 0xF JUMPI PUSH0 PUSH0 REVERT JUMPDEST POP PUSH1 0x40 MLOAD PUSH2 0xBD7 CODESIZE SUB DUP1 PUSH2 0xBD7 DUP4 CODECOPY DUP2 DUP2 ADD PUSH1 0x40 MSTORE DUP2 ADD SWAP1 PUSH2 0x31 SWAP2 SWAP1 PUSH2 0x7D JUMP JUMPDEST DUP2 PUSH0 DUP2 SWAP1 SSTORE POP DUP1 PUSH1 0x80 DUP2 DUP2 MSTORE POP POP POP POP PUSH2 0xBB JUMP JUMPDEST PUSH0 PUSH0 REVERT JUMPDEST PUSH0 DUP2 SWAP1 POP SWAP2 SWAP1 POP JUMP JUMPDEST PUSH2 0x5C DUP2 PUSH2 0x4A JUMP JUMPDEST DUP2 EQ PUSH2 0x66 JUMPI PUSH0 PUSH0 REVERT JUMPDEST POP JUMP JUMPDEST PUSH0 DUP2 MLOAD SWAP1 POP PUSH2 0x77 DUP2 PUSH2 0x53 JUMP JUMPDEST SWAP3 SWAP2 POP POP JUMP JUMPDEST PUSH0 PUSH0 PUSH1 0x40 DUP4 DUP6 SUB SLT ISZERO PUSH2 0x93 JUMPI PUSH2 0x92 PUSH2 0x46 JUMP JUMPDEST JUMPDEST PUSH0 PUSH2 0xA0 DUP6 DUP3 DUP7 ADD PUSH2 0x69 JUMP JUMPDEST SWAP3 POP POP PUSH1 0x20 PUSH2 0xB1 DUP6 DUP3 DUP7 ADD PUSH2 0x69 JUMP JUMPDEST SWAP2 POP POP SWAP3 POP SWAP3 SWAP1 POP JUMP JUMPDEST PUSH1 0x80 MLOAD PUSH2 0xAF6 PUSH2 0xE1 PUSH0 CODECOPY PUSH0 DUP2 DUP2 PUSH2 0x541 ADD MSTORE DUP2 DUP2 PUSH2 0x623 ADD MSTORE PUSH2 0x64C ADD MSTORE PUSH2 0xAF6 PUSH0 RETURN INVALID PUSH1 0x80 PUSH1 0x40 MSTORE PUSH1 0x4 CALLDATASIZE LT PUSH2 0x89 JUMPI PUSH0 CALLDATALOAD PUSH1 0xE0 SHR DUP1 PUSH4 0x5F0073D0 GT PUSH2 0x58 JUMPI DUP1 PUSH4 0x5F0073D0 EQ PUSH2 0x2A8 JUMPI DUP1 PUSH4 0x86968259 EQ PUSH2 0x2D2 JUMPI DUP1 PUSH4 0xE8B1298F EQ PUSH2 0x2FC JUMPI DUP1 PUSH4 0xECBEA24D EQ PUSH2 0x324 JUMPI DUP1 PUSH4 0xF061293A EQ PUSH2 0x34E JUMPI PUSH2 0x1F8 JUMP JUMPDEST DUP1 PUSH4 0x27E235E3 EQ PUSH2 0x1FC JUMPI DUP1 PUSH4 0x3C11FDAB EQ PUSH2 0x238 JUMPI DUP1 PUSH4 0x3D922F90 EQ PUSH2 0x274 JUMPI DUP1 PUSH4 0x44953313 EQ PUSH2 0x27E JUMPI PUSH2 0x1F8 JUMP JUMPDEST CALLDATASIZE PUSH2 0x1F8 JUMPI CALLVALUE PUSH0 DUP2 SUB PUSH2 0xC8 JUMPI PUSH1 0x40 MLOAD PUSH32 0xE429A53900000000000000000000000000000000000000000000000000000000 DUP2 MSTORE PUSH1 0x4 ADD PUSH1 0x40 MLOAD DUP1 SWAP2 SUB SWAP1 REVERT JUMPDEST PUSH0 CALLVALUE PUSH1 0x2 SLOAD PUSH2 0xD7 SWAP2 SWAP1 PUSH2 0x870 JUMP JUMPDEST SWAP1 POP PUSH0 SLOAD DUP2 GT ISZERO PUSH2 0x12F JUMPI CALLVALUE PUSH1 0x2 SLOAD PUSH0 SLOAD PUSH2 0xF2 SWAP2 SWAP1 PUSH2 0x8A3 JUMP JUMPDEST PUSH1 0x40 MLOAD PUSH32 0x9EF1B1A800000000000000000000000000000000000000000000000000000000 DUP2 MSTORE PUSH1 0x4 ADD PUSH2 0x126 SWAP3 SWAP2 SWAP1 PUSH2 0x8E5 JUMP JUMPDEST PUSH1 0x40 MLOAD DUP1 SWAP2 SUB SWAP1 REVERT JUMPDEST CALLVALUE PUSH1 0x1 PUSH0 CALLER PUSH20 0xFFFFFFFFFFFFFFFFFFFFFFFFFFFFFFFFFFFFFFFF AND PUSH20 0xFFFFFFFFFFFFFFFFFFFFFFFFFFFFFFFFFFFFFFFF AND DUP2 MSTORE PUSH1 0x20 ADD SWAP1 DUP2 MSTORE PUSH1 0x20 ADD PUSH0 KECCAK256 PUSH0 DUP3 DUP3 SLOAD PUSH2 0x17B SWAP2 SWAP1 PUSH2 0x870 JUMP JUMPDEST SWAP3 POP POP DUP2 SWAP1 SSTORE POP DUP1 PUSH1 0x2 DUP2 SWAP1 SSTORE POP PUSH1 0x3 PUSH0 DUP2 SLOAD DUP1 SWAP3 SWAP2 SWAP1 PUSH2 0x19B SWAP1 PUSH2 0x90C JUMP JUMPDEST SWAP2 SWAP1 POP SSTORE POP CALLER PUSH20 0xFFFFFFFFFFFFFFFFFFFFFFFFFFFFFFFFFFFFFFFF AND PUSH32 0xC2C39E0FF6C9E0D87EE52F45CC717BE2BA93405DDECD639A8BE0E2AD2E2CD743 CALLVALUE PUSH1 0x2 SLOAD PUSH1 0x3 SLOAD PUSH1 0x40 MLOAD PUSH2 0x1EE SWAP4 SWAP3 SWAP2 SWAP1 PUSH2 0x953 JUMP JUMPDEST PUSH1 0x40 MLOAD DUP1 SWAP2 SUB SWAP1 LOG2 STOP JUMPDEST PUSH0 PUSH0 REVERT JUMPDEST CALLVALUE DUP1 ISZERO PUSH2 0x207 JUMPI PUSH0 PUSH0 REVERT JUMPDEST POP PUSH2 0x222 PUSH1 0x4 DUP1 CALLDATASIZE SUB DUP2 ADD SWAP1 PUSH2 0x21D SWAP2 SWAP1 PUSH2 0x9E6 JUMP JUMPDEST PUSH2 0x378 JUMP JUMPDEST PUSH1 0x40 MLOAD PUSH2 0x22F SWAP2 SWAP1 PUSH2 0xA11 JUMP JUMPDEST PUSH1 0x40 MLOAD DUP1 SWAP2 SUB SWAP1 RETURN JUMPDEST CALLVALUE DUP1 ISZERO PUSH2 0x243 JUMPI PUSH0 PUSH0 REVERT JUMPDEST POP PUSH2 0x25E PUSH1 0x4 DUP1 CALLDATASIZE SUB DUP2 ADD SWAP1 PUSH2 0x259 SWAP2 SWAP1 PUSH2 0x9E6 JUMP JUMPDEST PUSH2 0x38D JUMP JUMPDEST PUSH1 0x40 MLOAD PUSH2 0x26B SWAP2 SWAP1 PUSH2 0xA11 JUMP JUMPDEST PUSH1 0x40 MLOAD DUP1 SWAP2 SUB SWAP1 RETURN JUMPDEST PUSH2 0x27C PUSH2 0x3D3 JUMP JUMPDEST STOP JUMPDEST CALLVALUE DUP1 ISZERO PUSH2 0x289 JUMPI PUSH0 PUSH0 REVERT JUMPDEST POP PUSH2 0x292 PUSH2 0x53F JUMP JUMPDEST PUSH1 0x40 MLOAD PUSH2 0x29F SWAP2 SWAP1 PUSH2 0xA11 JUMP JUMPDEST PUSH1 0x40 MLOAD DUP1 SWAP2 SUB SWAP1 RETURN JUMPDEST CALLVALUE DUP1 ISZERO PUSH2 0x2B3 JUMPI PUSH0 PUSH0 REVERT JUMPDEST POP PUSH2 0x2BC PUSH2 0x563 JUMP JUMPDEST PUSH1 0x40 MLOAD PUSH2 0x2C9 SWAP2 SWAP1 PUSH2 0xA11 JUMP JUMPDEST PUSH1 0x40 MLOAD DUP1 SWAP2 SUB SWAP1 RETURN JUMPDEST CALLVALUE DUP1 ISZERO PUSH2 0x2DD JUMPI PUSH0 PUSH0 REVERT JUMPDEST POP PUSH2 0x2E6 PUSH2 0x569 JUMP JUMPDEST PUSH1 0x40 MLOAD PUSH2 0x2F3 SWAP2 SWAP1 PUSH2 0xA11 JUMP JUMPDEST PUSH1 0x40 MLOAD DUP1 SWAP2 SUB SWAP1 RETURN JUMPDEST CALLVALUE DUP1 ISZERO PUSH2 0x307 JUMPI PUSH0 PUSH0 REVERT JUMPDEST POP PUSH2 0x322 PUSH1 0x4 DUP1 CALLDATASIZE SUB DUP2 ADD SWAP1 PUSH2 0x31D SWAP2 SWAP1 PUSH2 0xA54 JUMP JUMPDEST PUSH2 0x56F JUMP JUMPDEST STOP JUMPDEST CALLVALUE DUP1 ISZERO PUSH2 0x32F JUMPI PUSH0 PUSH0 REVERT JUMPDEST POP PUSH2 0x338 PUSH2 0x78B JUMP JUMPDEST PUSH1 0x40 MLOAD PUSH2 0x345 SWAP2 SWAP1 PUSH2 0xA11 JUMP JUMPDEST PUSH1 0x40 MLOAD DUP1 SWAP2 SUB SWAP1 RETURN JUMPDEST CALLVALUE DUP1 ISZERO PUSH2 0x359 JUMPI PUSH0 PUSH0 REVERT JUMPDEST POP PUSH2 0x362 PUSH2 0x790 JUMP JUMPDEST PUSH1 0x40 MLOAD PUSH2 0x36F SWAP2 SWAP1 PUSH2 0xA11 JUMP JUMPDEST PUSH1 0x40 MLOAD DUP1 SWAP2 SUB SWAP1 RETURN JUMPDEST PUSH1 0x1 PUSH1 0x20 MSTORE DUP1 PUSH0 MSTORE PUSH1 0x40 PUSH0 KECCAK256 PUSH0 SWAP2 POP SWAP1 POP SLOAD DUP2 JUMP JUMPDEST PUSH0 PUSH1 0x1 PUSH0 DUP4 PUSH20 0xFFFFFFFFFFFFFFFFFFFFFFFFFFFFFFFFFFFFFFFF AND PUSH20 0xFFFFFFFFFFFFFFFFFFFFFFFFFFFFFFFFFFFFFFFF AND DUP2 MSTORE PUSH1 0x20 ADD SWAP1 DUP2 MSTORE PUSH1 0x20 ADD PUSH0 KECCAK256 SLOAD SWAP1 POP SWAP2 SWAP1 POP JUMP JUMPDEST CALLVALUE PUSH0 DUP2 SUB PUSH2 0x40D JUMPI PUSH1 0x40 MLOAD PUSH32 0xE429A53900000000000000000000000000000000000000000000000000000000 DUP2 MSTORE PUSH1 0x4 ADD PUSH1 0x40 MLOAD DUP1 SWAP2 SUB SWAP1 REVERT JUMPDEST PUSH0 CALLVALUE PUSH1 0x2 SLOAD PUSH2 0x41C SWAP2 SWAP1 PUSH2 0x870 JUMP JUMPDEST SWAP1 POP PUSH0 SLOAD DUP2 GT ISZERO PUSH2 0x474 JUMPI CALLVALUE PUSH1 0x2 SLOAD PUSH0 SLOAD PUSH2 0x437 SWAP2 SWAP1 PUSH2 0x8A3 JUMP JUMPDEST PUSH1 0x40 MLOAD PUSH32 0x9EF1B1A800000000000000000000000000000000000000000000000000000000 DUP2 MSTORE PUSH1 0x4 ADD PUSH2 0x46B SWAP3 SWAP2 SWAP1 PUSH2 0x8E5 JUMP JUMPDEST PUSH1 0x40 MLOAD DUP1 SWAP2 SUB SWAP1 REVERT JUMPDEST CALLVALUE PUSH1 0x1 PUSH0 CALLER PUSH20 0xFFFFFFFFFFFFFFFFFFFFFFFFFFFFFFFFFFFFFFFF AND PUSH20 0xFFFFFFFFFFFFFFFFFFFFFFFFFFFFFFFFFFFFFFFF AND DUP2 MSTORE PUSH1 0x20 ADD SWAP1 DUP2 MSTORE PUSH1 0x20 ADD PUSH0 KECCAK256 PUSH0 DUP3 DUP3 SLOAD PUSH2 0x4C0 SWAP2 SWAP1 PUSH2 0x870 JUMP JUMPDEST SWAP3 POP POP DUP2 SWAP1 SSTORE POP DUP1 PUSH1 0x2 DUP2 SWAP1 SSTORE POP PUSH1 0x3 PUSH0 DUP2 SLOAD DUP1 SWAP3 SWAP2 SWAP1 PUSH2 0x4E0 SWAP1 PUSH2 0x90C JUMP JUMPDEST SWAP2 SWAP1 POP SSTORE POP CALLER PUSH20 0xFFFFFFFFFFFFFFFFFFFFFFFFFFFFFFFFFFFFFFFF AND PUSH32 0xC2C39E0FF6C9E0D87EE52F45CC717BE2BA93405DDECD639A8BE0E2AD2E2CD743 CALLVALUE PUSH1 0x2 SLOAD PUSH1 0x3 SLOAD PUSH1 0x40 MLOAD PUSH2 0x533 SWAP4 SWAP3 SWAP2 SWAP1 PUSH2 0x953 JUMP JUMPDEST PUSH1 0x40 MLOAD DUP1 SWAP2 SUB SWAP1 LOG2 POP POP JUMP JUMPDEST PUSH32 0x0 DUP2 JUMP JUMPDEST PUSH1 0x2 SLOAD DUP2 JUMP JUMPDEST PUSH1 0x3 SLOAD DUP2 JUMP JUMPDEST DUP1 PUSH0 DUP2 SUB PUSH2 0x5A9 JUMPI PUSH1 0x40 MLOAD PUSH32 0xE429A53900000000000000000000000000000000000000000000000000000000 DUP2 MSTORE PUSH1 0x4 ADD PUSH1 0x40 MLOAD DUP1 SWAP2 SUB SWAP1 REVERT JUMPDEST DUP2 DUP1 PUSH1 0x1 PUSH0 CALLER PUSH20 0xFFFFFFFFFFFFFFFFFFFFFFFFFFFFFFFFFFFFFFFF AND PUSH20 0xFFFFFFFFFFFFFFFFFFFFFFFFFFFFFFFFFFFFFFFF AND DUP2 MSTORE PUSH1 0x20 ADD SWAP1 DUP2 MSTORE PUSH1 0x20 ADD PUSH0 KECCAK256 SLOAD LT ISZERO PUSH2 0x621 JUMPI PUSH1 0x40 MLOAD PUSH32 0xF1270C8600000000000000000000000000000000000000000000000000000000 DUP2 MSTORE PUSH1 0x4 ADD PUSH1 0x40 MLOAD DUP1 SWAP2 SUB SWAP1 REVERT JUMPDEST PUSH32 0x0 DUP4 GT ISZERO PUSH2 0x6A8 JUMPI DUP3 PUSH32 0x0 PUSH1 0x40 MLOAD PUSH32 0x60AA7CBC00000000000000000000000000000000000000000000000000000000 DUP2 MSTORE PUSH1 0x4 ADD PUSH2 0x69F SWAP3 SWAP2 SWAP1 PUSH2 0x8E5 JUMP JUMPDEST PUSH1 0x40 MLOAD DUP1 SWAP2 SUB SWAP1 REVERT JUMPDEST DUP3 PUSH1 0x1 PUSH0 CALLER PUSH20 0xFFFFFFFFFFFFFFFFFFFFFFFFFFFFFFFFFFFFFFFF AND PUSH20 0xFFFFFFFFFFFFFFFFFFFFFFFFFFFFFFFFFFFFFFFF AND DUP2 MSTORE PUSH1 0x20 ADD SWAP1 DUP2 MSTORE PUSH1 0x20 ADD PUSH0 KECCAK256 PUSH0 DUP3 DUP3 SLOAD PUSH2 0x6F4 SWAP2 SWAP1 PUSH2 0x8A3 JUMP JUMPDEST SWAP3 POP POP DUP2 SWAP1 SSTORE POP DUP3 PUSH1 0x2 PUSH0 DUP3 DUP3 SLOAD PUSH2 0x70C SWAP2 SWAP1 PUSH2 0x8A3 JUMP JUMPDEST SWAP3 POP POP DUP2 SWAP1 SSTORE POP PUSH1 0x4 PUSH0 DUP2 SLOAD DUP1 SWAP3 SWAP2 SWAP1 PUSH2 0x725 SWAP1 PUSH2 0x90C JUMP JUMPDEST SWAP2 SWAP1 POP SSTORE POP PUSH2 0x734 CALLER DUP5 PUSH2 0x796 JUMP JUMPDEST CALLER PUSH20 0xFFFFFFFFFFFFFFFFFFFFFFFFFFFFFFFFFFFFFFFF AND PUSH32 0x513A4E63A7DE56CC9B7C15D2467C0AD91C82DF2B439CC2C4992F0B3B4B997D14 DUP5 PUSH1 0x4 SLOAD PUSH1 0x40 MLOAD PUSH2 0x77E SWAP3 SWAP2 SWAP1 PUSH2 0x8E5 JUMP JUMPDEST PUSH1 0x40 MLOAD DUP1 SWAP2 SUB SWAP1 LOG2 POP POP POP JUMP JUMPDEST PUSH0 SLOAD DUP2 JUMP JUMPDEST PUSH1 0x4 SLOAD DUP2 JUMP JUMPDEST PUSH0 DUP3 PUSH20 0xFFFFFFFFFFFFFFFFFFFFFFFFFFFFFFFFFFFFFFFF AND DUP3 PUSH1 0x40 MLOAD PUSH2 0x7BB SWAP1 PUSH2 0xAAC JUMP JUMPDEST PUSH0 PUSH1 0x40 MLOAD DUP1 DUP4 SUB DUP2 DUP6 DUP8 GAS CALL SWAP3 POP POP POP RETURNDATASIZE DUP1 PUSH0 DUP2 EQ PUSH2 0x7F5 JUMPI PUSH1 0x40 MLOAD SWAP2 POP PUSH1 0x1F NOT PUSH1 0x3F RETURNDATASIZE ADD AND DUP3 ADD PUSH1 0x40 MSTORE RETURNDATASIZE DUP3 MSTORE RETURNDATASIZE PUSH0 PUSH1 0x20 DUP5 ADD RETURNDATACOPY PUSH2 0x7FA JUMP JUMPDEST PUSH1 0x60 SWAP2 POP JUMPDEST POP POP SWAP1 POP DUP1 PUSH2 0x835 JUMPI PUSH1 0x40 MLOAD PUSH32 0x8A6C667700000000000000000000000000000000000000000000000000000000 DUP2 MSTORE PUSH1 0x4 ADD PUSH1 0x40 MLOAD DUP1 SWAP2 SUB SWAP1 REVERT JUMPDEST POP POP POP JUMP JUMPDEST PUSH0 DUP2 SWAP1 POP SWAP2 SWAP1 POP JUMP JUMPDEST PUSH32 0x4E487B7100000000000000000000000000000000000000000000000000000000 PUSH0 MSTORE PUSH1 0x11 PUSH1 0x4 MSTORE PUSH1 0x24 PUSH0 REVERT JUMPDEST PUSH0 PUSH2 0x87A DUP3 PUSH2 0x83A JUMP JUMPDEST SWAP2 POP PUSH2 0x885 DUP4 PUSH2 0x83A JUMP JUMPDEST SWAP3 POP DUP3 DUP3 ADD SWAP1 POP DUP1 DUP3 GT ISZERO PUSH2 0x89D JUMPI PUSH2 0x89C PUSH2 0x843 JUMP JUMPDEST JUMPDEST SWAP3 SWAP2 POP POP JUMP JUMPDEST PUSH0 PUSH2 0x8AD DUP3 PUSH2 0x83A JUMP JUMPDEST SWAP2 POP PUSH2 0x8B8 DUP4 PUSH2 0x83A JUMP JUMPDEST SWAP3 POP DUP3 DUP3 SUB SWAP1 POP DUP2 DUP2 GT ISZERO PUSH2 0x8D0 JUMPI PUSH2 0x8CF PUSH2 0x843 JUMP JUMPDEST JUMPDEST SWAP3 SWAP2 POP POP JUMP JUMPDEST PUSH2 0x8DF DUP2 PUSH2 0x83A JUMP JUMPDEST DUP3 MSTORE POP POP JUMP JUMPDEST PUSH0 PUSH1 0x40 DUP3 ADD SWAP1 POP PUSH2 0x8F8 PUSH0 DUP4 ADD DUP6 PUSH2 0x8D6 JUMP JUMPDEST PUSH2 0x905 PUSH1 0x20 DUP4 ADD DUP5 PUSH2 0x8D6 JUMP JUMPDEST SWAP4 SWAP3 POP POP POP JUMP JUMPDEST PUSH0 PUSH2 0x916 DUP3 PUSH2 0x83A JUMP JUMPDEST SWAP2 POP PUSH32 0xFFFFFFFFFFFFFFFFFFFFFFFFFFFFFFFFFFFFFFFFFFFFFFFFFFFFFFFFFFFFFFFF DUP3 SUB PUSH2 0x948 JUMPI PUSH2 0x947 PUSH2 0x843 JUMP JUMPDEST JUMPDEST PUSH1 0x1 DUP3 ADD SWAP1 POP SWAP2 SWAP1 POP JUMP JUMPDEST PUSH0 PUSH1 0x60 DUP3 ADD SWAP1 POP PUSH2 0x966 PUSH0 DUP4 ADD DUP7 PUSH2 0x8D6 JUMP JUMPDEST PUSH2 0x973 PUSH1 0x20 DUP4 ADD DUP6 PUSH2 0x8D6 JUMP JUMPDEST PUSH2 0x980 PUSH1 0x40 DUP4 ADD DUP5 PUSH2 0x8D6 JUMP JUMPDEST SWAP5 SWAP4 POP POP POP POP JUMP JUMPDEST PUSH0 PUSH0 REVERT JUMPDEST PUSH0 PUSH20 0xFFFFFFFFFFFFFFFFFFFFFFFFFFFFFFFFFFFFFFFF DUP3 AND SWAP1 POP SWAP2 SWAP1 POP JUMP JUMPDEST PUSH0 PUSH2 0x9B5 DUP3 PUSH2 0x98C JUMP JUMPDEST SWAP1 POP SWAP2 SWAP1 POP JUMP JUMPDEST PUSH2 0x9C5 DUP2 PUSH2 0x9AB JUMP JUMPDEST DUP2 EQ PUSH2 0x9CF JUMPI PUSH0 PUSH0 REVERT JUMPDEST POP JUMP JUMPDEST PUSH0 DUP2 CALLDATALOAD SWAP1 POP PUSH2 0x9E0 DUP2 PUSH2 0x9BC JUMP JUMPDEST SWAP3 SWAP2 POP POP JUMP JUMPDEST PUSH0 PUSH1 0x20 DUP3 DUP5 SUB SLT ISZERO PUSH2 0x9FB JUMPI PUSH2 0x9FA PUSH2 0x988 JUMP JUMPDEST JUMPDEST PUSH0 PUSH2 0xA08 DUP5 DUP3 DUP6 ADD PUSH2 0x9D2 JUMP JUMPDEST SWAP2 POP POP SWAP3 SWAP2 POP POP JUMP JUMPDEST PUSH0 PUSH1 0x20 DUP3 ADD SWAP1 POP PUSH2 0xA24 PUSH0 DUP4 ADD DUP5 PUSH2 0x8D6 JUMP JUMPDEST SWAP3 SWAP2 POP POP JUMP JUMPDEST PUSH2 0xA33 DUP2 PUSH2 0x83A JUMP JUMPDEST DUP2 EQ PUSH2 0xA3D JUMPI PUSH0 PUSH0 REVERT JUMPDEST POP JUMP JUMPDEST PUSH0 DUP2 CALLDATALOAD SWAP1 POP PUSH2 0xA4E DUP2 PUSH2 0xA2A JUMP JUMPDEST SWAP3 SWAP2 POP POP JUMP JUMPDEST PUSH0 PUSH1 0x20 DUP3 DUP5 SUB SLT ISZERO PUSH2 0xA69 JUMPI PUSH2 0xA68 PUSH2 0x988 JUMP JUMPDEST JUMPDEST PUSH0 PUSH2 0xA76 DUP5 DUP3 DUP6 ADD PUSH2 0xA40 JUMP JUMPDEST SWAP2 POP POP SWAP3 SWAP2 POP POP JUMP JUMPDEST PUSH0 DUP2 SWAP1 POP SWAP3 SWAP2 POP POP JUMP JUMPDEST POP JUMP JUMPDEST PUSH0 PUSH2 0xA97 PUSH0 DUP4 PUSH2 0xA7F JUMP JUMPDEST SWAP2 POP PUSH2 0xAA2 DUP3 PUSH2 0xA89 JUMP JUMPDEST PUSH0 DUP3 ADD SWAP1 POP SWAP2 SWAP1 POP JUMP JUMPDEST PUSH0 PUSH2 0xAB6 DUP3 PUSH2 0xA8C JUMP JUMPDEST SWAP2 POP DUP2 SWAP1 POP SWAP2 SWAP1 POP JUMP INVALID LOG2 PUSH5 0x6970667358 0x22 SLT KECCAK256 0xC8 EOFCREATE 0x3C PUSH6 0x232DFB256CEF EXP PUSH15 0xC85421C8801A30000FD4EDDB428FE2 DUP12 DELEGATECALL CODECOPY MOD 0xCD PUSH5 0x736F6C6343 STOP ADDMOD 0x1E STOP CALLER "
		},
		"gasEstimates": {
			"creation": {
				"codeDepositCost": "561200",
				"executionCost": "infinite",
				"totalCost": "infinite"
			},
			"external": {
				"balances(address)": "2803",
				"bankCap()": "2490",
				"contadorDepositos()": "2447",
				"contadorRetiros()": "2513",
				"depositar()": "infinite",
				"limiteRetiro()": "infinite",
				"retirar(uint256)": "infinite",
				"totalDepositado()": "2425",
				"verBalance(address)": "2852"
			},
			"internal": {
				"_transferirSeguro(address payable,uint256)": "infinite"
			}
		},
		"methodIdentifiers": {
			"balances(address)": "27e235e3",
			"bankCap()": "ecbea24d",
			"contadorDepositos()": "86968259",
			"contadorRetiros()": "f061293a",
			"depositar()": "3d922f90",
			"limiteRetiro()": "44953313",
			"retirar(uint256)": "e8b1298f",
			"totalDepositado()": "5f0073d0",
			"verBalance(address)": "3c11fdab"
		}
	},
	"abi": [
		{
			"inputs": [
				{
					"internalType": "uint256",
					"name": "_bankCap",
					"type": "uint256"
				},
				{
					"internalType": "uint256",
					"name": "_limiteRetiro",
					"type": "uint256"
				}
			],
			"stateMutability": "nonpayable",
			"type": "constructor"
		},
		{
			"inputs": [],
			"name": "BalanceInsuficiente",
			"type": "error"
		},
		{
			"inputs": [],
			"name": "CantidadInvalida",
			"type": "error"
		},
		{
			"inputs": [
				{
					"internalType": "uint256",
					"name": "intentado",
					"type": "uint256"
				},
				{
					"internalType": "uint256",
					"name": "disponible",
					"type": "uint256"
				}
			],
			"name": "ExcedeBankCap",
			"type": "error"
		},
		{
			"inputs": [
				{
					"internalType": "uint256",
					"name": "intentado",
					"type": "uint256"
				},
				{
					"internalType": "uint256",
					"name": "limite",
					"type": "uint256"
				}
			],
			"name": "ExcedeLimiteRetiro",
			"type": "error"
		},
		{
			"inputs": [],
			"name": "TransferenciaFallida",
			"type": "error"
		},
		{
			"anonymous": false,
			"inputs": [
				{
					"indexed": true,
					"internalType": "address",
					"name": "usuario",
					"type": "address"
				},
				{
					"indexed": false,
					"internalType": "uint256",
					"name": "monto",
					"type": "uint256"
				},
				{
					"indexed": false,
					"internalType": "uint256",
					"name": "totalDepositado",
					"type": "uint256"
				},
				{
					"indexed": false,
					"internalType": "uint256",
					"name": "contadorDepositos",
					"type": "uint256"
				}
			],
			"name": "Deposito",
			"type": "event"
		},
		{
			"anonymous": false,
			"inputs": [
				{
					"indexed": true,
					"internalType": "address",
					"name": "usuario",
					"type": "address"
				},
				{
					"indexed": false,
					"internalType": "uint256",
					"name": "monto",
					"type": "uint256"
				},
				{
					"indexed": false,
					"internalType": "uint256",
					"name": "contadorRetiros",
					"type": "uint256"
				}
			],
			"name": "Retiro",
			"type": "event"
		},
		{
			"inputs": [
				{
					"internalType": "address",
					"name": "",
					"type": "address"
				}
			],
			"name": "balances",
			"outputs": [
				{
					"internalType": "uint256",
					"name": "",
					"type": "uint256"
				}
			],
			"stateMutability": "view",
			"type": "function"
		},
		{
			"inputs": [],
			"name": "bankCap",
			"outputs": [
				{
					"internalType": "uint256",
					"name": "",
					"type": "uint256"
				}
			],
			"stateMutability": "view",
			"type": "function"
		},
		{
			"inputs": [],
			"name": "contadorDepositos",
			"outputs": [
				{
					"internalType": "uint256",
					"name": "",
					"type": "uint256"
				}
			],
			"stateMutability": "view",
			"type": "function"
		},
		{
			"inputs": [],
			"name": "contadorRetiros",
			"outputs": [
				{
					"internalType": "uint256",
					"name": "",
					"type": "uint256"
				}
			],
			"stateMutability": "view",
			"type": "function"
		},
		{
			"inputs": [],
			"name": "depositar",
			"outputs": [],
			"stateMutability": "payable",
			"type": "function"
		},
		{
			"inputs": [],
			"name": "limiteRetiro",
			"outputs": [
				{
					"internalType": "uint256",
					"name": "",
					"type": "uint256"
				}
			],
			"stateMutability": "view",
			"type": "function"
		},
		{
			"inputs": [
				{
					"internalType": "uint256",
					"name": "cantidad",
					"type": "uint256"
				}
			],
			"name": "retirar",
			"outputs": [],
			"stateMutability": "nonpayable",
			"type": "function"
		},
		{
			"inputs": [],
			"name": "totalDepositado",
			"outputs": [
				{
					"internalType": "uint256",
					"name": "",
					"type": "uint256"
				}
			],
			"stateMutability": "view",
			"type": "function"
		},
		{
			"inputs": [
				{
					"internalType": "address",
					"name": "usuario",
					"type": "address"
				}
			],
			"name": "verBalance",
			"outputs": [
				{
					"internalType": "uint256",
					"name": "",
					"type": "uint256"
				}
			],
			"stateMutability": "view",
			"type": "function"
		},
		{
			"stateMutability": "payable",
			"type": "receive"
		}
	]
}